:020000040800F2
:100000002010002089010008AB270008B520000857
:10001000A92700081B030008B930000800000000F1
:100020000000000000000000000000003F2B00085E
:1000300035030008000000003D2B0008412B00089C
:10004000A3010008A3010008A3010008A301000800
:10005000A3010008A3010008A3010008A3010008F0
:10006000A3010008A3010008A3010008A3010008E0
:10007000A3010008A30100081D03000829030008CC
:10008000A3010008A3010008A3010008A3010008C0
:10009000A3010008A3010008A3010008A3010008B0
:1000A000A3010008A3010008A3010008A3010008A0
:1000B000A3010008BD2B0008C92B0008A3010008FC
:1000C000A3010008A3010008A3010008A301000880
:1000D000A301000881300008A3010008A301000863
:1000E000A3010008A3010008A301000800F002F822
:1000F00000F03AF80AA090E8000C82448344AAF188
:100100000107DA4501D100F02FF8AFF2090EBAE885
:100110000F0013F0010F18BFFB1A43F0010318473B
:10012000E858000008590000103A24BF78C878C188
:10013000FAD8520724BF30C830C144BF04680C60ED
:10014000704700000023002400250026103A28BF35
:1001500078C1FBD8520728BF30C148BF0B60704739
:100160001FB51FBD10B510BD00F09DF81146FFF77B
:10017000F7FF03F01DF800F0BBF803B4FFF7F2FF40
:1001800003BC00F0C3F80000094880470948004755
:10019000FEE7FEE7FEE7FEE7FEE7FEE7FEE7FEE737
:1001A000FEE7FEE704480549054A064B7047000094
:1001B000BB2B0008ED000008200A002020100020C2
:1001C000200C0020200C00200FB41CB5074B06AA01
:1001D0007B4469460090059800F039F80020694694
:1001E00000F048F81CBC5DF814FB0000A100000002
:1001F0004FF0000200B5134694469646203922BFC0
:10020000A0E80C50A0E80C50B1F12001BFF4F7AF0A
:10021000090728BFA0E80C5048BF0CC05DF804EBEC
:10022000890028BF40F8042B08BF704748BF20F85A
:10023000022B11F0804F18BF00F8012B7047704758
:100240007047704701694A1C02610878704700B521
:100250008FB0CDE901310021059105497944CDE9FF
:1002600003101146684600F00AF80FB000BD000008
:10027000E5FFFFFF0A6802F8010B0A6070472DE9ED
:10028000F04106460024D6E90170F5688046304604
:1002900003E04146B847641C3046A8470028F8D11F
:1002A0002046BDE8F081754600F02CF8AE4605000A
:1002B0006946534620F00700854618B020B5FFF781
:1002C00071FFBDE820404FF000064FF000074FF0EF
:1002D00000084FF0000B21F00701AC46ACE8C00964
:1002E000ACE8C009ACE8C009ACE8C0098D4670476D
:1002F00010B50446AFF300802046BDE81040FFF77C
:100300003CBF000000487047C00900200149182088
:10031000ABBEFEE7260002007047FEE7014800F092
:100320007BB80000E0010020014800F075B8000033
:1003300024020020704772B6FEE710B590F8211035
:100340000022022905D00421816380F820200120A9
:1003500010BD01680B6823F00E030B6001680B6889
:1003600023F001030B6090F84030C46B012101FAC7
:1003700003F3636080F8211080F82020104610BD40
:1003800010B590F821100024022903D004218163C4
:1003900001243DE001680A6822F00E020A6001684B
:1003A0000A6822F001020A601A4A0168914201D1EA
:1003B000012121E0174A1432914201D110211BE0A2
:1003C000144A2832914201D1891515E0114A3C3274
:1003D000914201D189140FE00E4A5032914202D16C
:1003E0004FF4803108E00B4A6432914202D14FF45D
:1003F000801101E04FF08071064A083A51600121F6
:1004000080F82110002180F82010416B01B188474D
:10041000204610BD080002402DE9F05FC16B0C685A
:1004200001680B68D0F840C0042202FA0CF2494D72
:10043000DFF824A1494E4A4FDFF828B1DFF828E160
:1004400022422CD05A072AD50A68920603D40A6899
:1004500022F004020A600168A94201D1042219E0D5
:10046000514501D1402215E0B14202D14FF48062E2
:1004700010E0B94202D14FF480420BE0594502D15D
:100480004FF4802206E0714502D14FF4800201E072
:100490004FF080622F4908394A60C16A3BE04FF053
:1004A000020808FA0CF818EA040F4FF000094FF0A0
:1004B000010235D05FEA837832D50B689B0605D4FC
:1004C0000B6823F00A030B6080F821200168A94221
:1004D00001D1022219E0514501D1202215E0B1429B
:1004E00002D14FF4007210E0B94202D14FF4005231
:1004F0000BE0594502D14FF4003206E0714502D1BC
:100500004FF4001201E04FF00072124908394A60BE
:1005100080F82090816A00291AD0BDE8F05F084772
:10052000082505FA0CF5254212D01B0710D50B68DB
:1005300023F00E030B6090F84010C36B02FA01F138
:100540005960826380F8212080F82090016BE2E7F7
:10055000BDE8F09F080002401C000240300002404D
:1005600044000240580002406C00024030B528B3FD
:1005700008C8134914221944B1FBF2F18900C16380
:1005800010498163022141771A6843F6F0718A436A
:10059000D0E900142143D0E902452C4321430469EA
:1005A0002143446921438469214311431960002197
:1005B0004163012242770177084630BD012030BDFA
:1005C000F8FFFDBF0000024070B5044600F00CF9D2
:1005D0000546601C02D004480078044400F004F989
:1005E000401BA042FAD370BD000000202DE9F84F57
:1005F000DFF8B8910024A9F1040B23460F2709F175
:10060000040AABF1040EC9E00125A5402A40AA4224
:100610007DD1674ED1F804C0ACEB0608B44532D0AA
:1006200014DCBCF1030F3AD009DCBCF1000F2AD076
:10063000BCF1010F1CD0BCF1020F31D11DE0BCF1A7
:10064000110F17D0BCF1120F2AD119E0B8F5881F8D
:1006500019D006DCB8F5803F15D0B8F5801F1FD142
:1006600011E0B8F5001F0ED0B8F5041F18D10AE04C
:10067000CB6815E0CB681B1D12E0CB6808330FE098
:10068000CB680C330CE08B682BB1012B4FF00803C7
:1006900003D0456104E0042302E0056100E000238B
:1006A000FF2A01D8064601E000F104064FEA84055E
:1006B00001D9A5F12005D6F8008007FA05FC28EA43
:1006C0000C0803FA05F548EA0508C6F800804D68ED
:1006D000ED0062D5374DAE6946F00106AE61AD69F9
:1006E00024F0030605F001050095334D06EB050CDB
:1006F000DCF80850A607360F07FA06F825EA0805C1
:10070000DFF8B880404503D14FF0000817E044E01F
:10071000DFF8AC80404502D14FF001080FE0DFF870
:10072000A480404502D14FF0020808E0DFF898802D
:10073000404502D14FF0030801E04FF0040808FAE9
:1007400006F848EA0508CCF808804D68D9F800603A
:10075000ED024D4601D5164300E096432E604D68EC
:10076000DAF80060AD02554601D5164300E0964325
:100770002E604D68DBF80060AD035D4601D5164381
:1007800000E096432E604D68DEF80060ED0375468C
:1007900001D5164300E096432E60641C0D682A467E
:1007A000E5407FF431AFBDE8F88F00000804014058
:1007B000000011100010024000000140000801403C
:1007C000000C01400010014000140140C26821EA01
:1007D00002030A4043EA0241016170470AB1016124
:1007E00070470904FBE7000001488068704700007B
:1007F0000000002070B5040025D094F83D000025CD
:1008000020B984F83C50204600F050F9242084F8A8
:100810003D002068016821F0010101602068016845
:1008200041F4004101602068016821F40041016049
:1008300000F0A6FB4D4A6168914201D84C4900E0A6
:100840004C49884201D2012070BD4B492368B0FB5E
:10085000F1F15E6826F03F060E435E6063689342E6
:1008600006D94FF4967359434FF47A73B1FBF3F101
:100870002368491C1E6A26F03F06314319626168ED
:10088000914210D84900401EB0FBF1F2521CC2F355
:100890000B02042A01D2042022E0B0FBF1F0401C3C
:1008A000C0F30B001CE0A268F2B301EBC10303EB41
:1008B0000116431EB3FBF6F35B1C43F480431B0598
:1008C00049D092B301EBC10202EB0111401EB0FB13
:1008D000F1F0401CC0F30B0040F4804040F40040B5
:1008E0002168CA694CF6FF739A431043C861D4E982
:1008F000071001432068026822F0C0021143016022
:10090000D4E9030101432068826848F2FF339A4327
:1009100011438160D4E9050108432168CA6822F0C7
:10092000FF021043C86001E00EE016E02068016895
:1009300041F0010101602564202084F83D00256319
:1009400084F83E50002070BD01EB4106431EB3FB0E
:10095000F6F35B1CB3E70120C2E701EB4101401E47
:10096000B0FBF1F0401CC0F30B00B7E7A08601001C
:1009700080841E0000093D0040420F002DE9FF4F1A
:1009800083B09A46DDE9119793460446DDF840802E
:10099000FFF72AFF054694F83D0020287FD1192350
:1009A000012240492046009501F01CFC002876D128
:1009B00094F83C00012872D0012084F83C002068A3
:1009C0000168C90703D1016841F001010160206895
:1009D000016821F400610160212084F83D0040207D
:1009E00084F83E0000262664C4F82480A4F82A90E7
:1009F000608D20852C48E062CDE9007553465A464B
:100A00002046049901F06EFB70B930E02A46394661
:100A1000204601F08DFC58B1206C042804D12068D8
:100A2000016841F400710160012007B0BDE8F08F5A
:100A3000606A216800780861606A401C6062218DEC
:100A4000491E89B22185628D521E628522685369D2
:100A5000DB435B070BD469B100781061606A401C0E
:100A60006062208D401E2085608D401E6085208D37
:100A70000028CBD12A463946204601F087FB0028C2
:100A8000CAD154F83D0B016841F400710160202087
:100A900004F81E09E67766770020C6E7FFE7022024
:100AA000C3E70000020010000000FFFF30B585B072
:100AB00000210091019102910391214D0368214C85
:100AC000122103222048AB421DD1A36943F0080341
:100AD000A361A369039203F0080304931302CDE911
:100AE00000316946FFF782FD1848416841F0E06136
:100AF00041F002014160E06940F40010E061E0690A
:100B000000F4001019E0124DAB4217D1A36943F075
:100B10000803A361A369039203F0080304934FF44D
:100B20004063CDE900316946FFF760FDE06940F4BC
:100B30008000E061E06900F48000049005B030BD01
:100B40000054004000100240000C01400000014031
:100B50000058004002488168027811448160704763
:100B600000000020074810B5016841F01001016045
:100B7000032000F075F80F2000F006F800F024F8CC
:100B8000002010BD0020024070B50D4D04464FF40A
:100B90007A712878B1FBF0F00A490968B1FBF0F0EE
:100BA00000F0C4FB48B9102C07D200222146501E89
:100BB00000F036F800206C6070BD012070BD0000B0
:100BC000000000200C0000200C4808B5816941F0AD
:100BD00001018161816901F001010091C16941F068
:100BE0008051C161C06900F08050009004484168A4
:100BF00021F0E06141F00071416008BD0010024049
:100C000000000140002809DB00F01F020121914093
:100C10004009800000F1E020C0F80011704700009A
:100C2000F0B40E4B1B680C46C3F30223C3F1070557
:100C3000042D00D90425191D072901D2002300E045
:100C4000DB1E012606FA05F1491E214099409E400F
:100C5000761E16403143F0BC02F02FBA0CED00E0D6
:100C6000064900F0070208684FF6FF03184040EA03
:100C70000220034A10430860704700000CED00E0BA
:100C80000000FA052DE9F041040004D094F8910227
:100C9000002518B107E00120BDE8F08184F89052EA
:100CA000204600F04DF8032084F891026571206819
:100CB00002F0F9F994E80F0002F0E8F9022698BB77
:100CC0000021206802F0F6F970BB002001270BE03C
:100CD00000EB800104EBC1014F740874CD740D6208
:100CE0004D62401CC0B28D6221798142F0D8002053
:100CF00012E000BF00EB800104EBC10181F851510B
:100D000081F8500181F85351C1F86051C1F8645124
:100D1000401CC0B2C1F8685121798142EAD894E8F8
:100D20000F0002F0B7F910B184F89162B3E7657370
:100D300084F89172206802F0ABF90020ACE7000063
:100D400008B500680649884208D10648C16941F4DF
:100D50000001C161C06900F40000009008BD0000FE
:100D6000005C0040001002402DE9F8430546007881
:100D7000354CC00754D0E0690026C00008D4E069B3
:100D800040F08050E061E069012600F08050009062
:100D90002E480168C90512D40168804641F480716B
:100DA0000160FFF721FD074605E000BFFFF71CFDCE
:100DB000C01B642823D8D8F80000C005F6D5206AE7
:100DC00010F4407021D0A98801F4407181421CD0F8
:100DD000206A1F49012220F440700A6000220A6044
:100DE0002062C00711D0FFF7FFFC074641F28838A8
:100DF00008E000BFFFF7F8FCC11B414502D9032002
:100E0000BDE8F883206A8007F4D5206A696820F479
:100E10004070084320621EB1E06920F08050E0611C
:100E20002878800705D56068A96820F44040084309
:100E300060602878C00605D56068E96820F4800005
:100E4000084360600020DBE70010024000700040B3
:100E5000400442422DE9F0470F46050061D0434E61
:100E6000306800F00700B84209D2306820F007006F
:100E700038433060306800F00700B84251D128682C
:100E80003B4C810712D5400703D5606840F4E06011
:100E900060602878000703D5606840F460506060A7
:100EA0006068A96820F0F000084360602878C007F7
:100EB00028D06868012810D02168022810D089073E
:100EC00000292EDA616821F0030101436160FFF718
:100ED0008BFC804641F288390DE021688903EFE7F9
:100EE0008901EDE7FFF780FCA0EB0801494502D935
:100EF0000320BDE8F0876068696800F00C00B0EB83
:100F0000810FEFD1306800F00700B8420BD930688C
:100F100020F0070038433060306800F00700B84226
:100F200001D00120E5E72878400705D56068E96829
:100F300020F4E060084360602878000706D5606808
:100F4000296920F4605040EAC100606000F038F880
:100F50006168084AC1F30311515CC8400649086042
:100F600006480068FFF710FE0020C2E7002002409C
:100F700000100240763700080C000020040000201A
:100F80000448054900684968044AC1F30221515CDC
:100F9000C84070470C00002000100240863700084F
:100FA0000448054900684968044AC1F3C221515CFC
:100FB000C84070470C00002000100240863700082F
:100FC0000E4A51680E4801F00C03042B11D0082B77
:100FD0000FD10C48C1F38343C903C05C0AD55168E3
:100FE000084AC1F34041921E515C054A5043B0FB90
:100FF000F1F0704704494843704700000010024078
:1010000000127A006637000800093D002DE9F84F0C
:10101000040070D02078C04DC00749D06868C0F384
:101020008100012807D06868C0F38100022809D137
:101030006868C00306D52868800339D56068002831
:10104000E7D035E06068B0F5803F0BD010B1B0F567
:10105000A02F11D0286820F480302860286820F460
:10106000802002E0286840F480302860606890B1F9
:10107000FFF7BAFB06460AE0286840F480202860A3
:10108000F0E700BFFFF7B0FB801B642873D8286827
:101090008003F7D50CE0FFF7A7FB064605E000BF8D
:1010A000FFF7A2FB801B6428F0D828688003F7D4E0
:1010B00020789A4E80074FF001094FF0000839D58B
:1010C000686810F00C0F07D06868C0F38100022830
:1010D00009D16868C00306D42868800714D5206940
:1010E000012808D110E02069B0B1C6F80090FFF7E0
:1010F0007BFB074605E00AE1FFF776FBC01B0228F1
:10110000C4D828688007F7D52868616920F0F800FE
:1011100040EAC10028600DE0C6F80080FFF764FBDC
:10112000074604E0FFF760FBC01B022823D82868AD
:101130008007F7D4207800072CD57948A169D9B168
:10114000C0F80090FFF750FB074604E0FFF74CFBA8
:10115000C01B02280FD8686A8007F7D571484FF482
:10116000FA510068B0FBF1F0009000BF0098411EFA
:101170000091FAD20EE080E0C0F80080FFF734FB67
:10118000074604E0FFF730FBC01B022875D8686AE9
:101190008007F7D42078400760D5E8690027C000B1
:1011A00008D4E86940F08050E861E869012700F060
:1011B000805000905C480168C90513D401688346DB
:1011C00041F480710160FFF70FFB824606E000BF2B
:1011D000FFF70AFBA0EB0A0064284ED8DBF80000FA
:1011E000C005F5D5E06801280AD008B1052813D05C
:1011F000286A20F001002862286A20F0040002E03A
:10120000286A40F001002862E06841F2883B98B10A
:10121000FFF7EAFA82460BE0286A40F004002862F1
:10122000EEE700BFFFF7E0FAA0EB0A0159455AD8F4
:10123000286A8007F6D50CE0FFF7D6FA824605E06B
:10124000FFF7D2FAA0EB0A0159454CD8286A80076B
:10125000F6D41FB1E86920F08050E861E06988B3F6
:101260006968C1F38101022944D00228C6F8608070
:1012700004D0FFF7B9FA044638E034E0FFF7B4FAD7
:10128000074604E0FFF7B0FAC01B02282BD82868F5
:101290008001F7D4206AB0F5803F05D16868A16865
:1012A00020F4003008436860D4E908010843696805
:1012B00021F4741108436860C6F86090FFF794FA4F
:1012C000044606E025E000BFFFF78EFA001B022867
:1012D00009D828688001F7D51BE000BFFFF784FA22
:1012E000001B022802D90320BDE8F88F286880017E
:1012F000F4D40EE00128F7D06868226A00F4803147
:10130000914204D1616A00F47010884201D001203A
:10131000EAE70020E8E70000001002400000424237
:10132000800442420C0000200070004010B5401EB6
:10133000B0F1807F01D3012010BD4FF0E024606147
:101340000F21601701F0B9FE0020A0610720206185
:10135000002010BD7047704770B590F83C20012AFE
:1013600026D0012480F83C40022280F83D2003680A
:101370005A689D6822F070060A6832435A600D4B25
:1013800002689A4208D0B2F1804F05D00A4B9A42C7
:1013900002D00A4B9A4204D1496825F080031943D0
:1013A000916080F83D40002180F83C10084670BDF7
:1013B000022070BD002C01400004004000080040E5
:1013C00010B5040003D094F83D0010B107E00120EF
:1013D00010BD002084F83C00204600F01FF80220D9
:1013E00084F83D00211D206801F0F4FB012084F801
:1013F000460084F83E0084F83F0084F8400084F8FA
:10140000410084F8420084F8430084F8440084F8E2
:10141000450084F83D00002010BD000030B585B0C7
:101420000024009401940294039401682948B1F1C6
:10143000804F30D0284A914237D1C16941F0020132
:10144000C161C16901F002010491816941F00401A7
:101450008161816901F004010491816941F0080111
:1014600081618069022500F008000490C02000908E
:10147000694602951948FFF7B9F803208DE8310055
:1014800069461748FFF7B2F8002211461D20FFF702
:10149000C7FB1D201AE0C16941F00101C161C069AB
:1014A00000F00100049005B030BD0E4A9142FAD11F
:1014B000C16941F00401C161C069002200F004006B
:1014C000049011461E20FFF7ABFB1E20FFF79AFB8E
:1014D000E9E700000010024000040040000801405D
:1014E000000C01400008004090F83D10012901D097
:1014F00001207047022180F83D1000680B498842A6
:1015000008D0B0F1804F05D00949884202D009497E
:10151000884204D1816801F00701062903D00168DF
:1015200041F001010160002070470000002C0140E3
:10153000000400400008004090F83D10012901D04F
:1015400001207047022180F83D100168CA6842F00E
:101550000102CA6000680B49884208D0B0F1804F90
:1015600005D00949884202D00849884204D18168DF
:1015700001F00701062903D0016841F00101016073
:1015800000207047002C014000040040000800408B
:1015900070B5044690F83C000025012817D00126BC
:1015A00084F83C60022084F83D002068826822F0C4
:1015B000770222F47F4282600868502838D00DDC20
:1015C00020284FD005DC90B3102811D14AE002202A
:1015D00070BD302846D040280AD13BE060282FD08B
:1015E00070280DD0B0F5805F03D0B0F5005F12D049
:1015F000012584F83D60002084F83C00284670BD39
:10160000CB68D1E90121206801F02DFB20688168B9
:1016100041F0770109E0CB68D1E90121206801F0B0
:1016200022FB2068816841F480418160E1E719E094
:10163000CA684968206801F0CBFB5021206806E0A9
:10164000CA684968206801F001FC6021206801F047
:1016500014FBCEE7CA684968206801F0B9FB402155
:101660002068F4E7226801461046F0E770472DE94C
:10167000F041054690F83C0000260C46012810D0A9
:10168000012085F83C0072B1042A1CD0082A2CD015
:101690000C2A50D00126002085F83C003046BDE8D9
:1016A000F0810220FBE7D4E90012E368286801F02A
:1016B000A1FB2868816921F00C018161286881699A
:1016C000A26811430FE0D4E90012E368286801F032
:1016D000CFFB2868816921F44061816128688169B4
:1016E000A26841EA02218161D5E72868D4E9002C8B
:1016F000277B036A016A21F480710162C16923F4C6
:10170000007321F0030141EA0C0121F0F00C3907CC
:101710004FF400774CEA116107EA02221A43C161D3
:1017200002622868C16921F00C01C1612868C169A1
:10173000A26811432BE02868D4E90021E768036A16
:10174000D0F820C02CF4805CC0F820C0D0F81CC0B9
:1017500023F400532CF4407C4CEA012121F4704C1A
:101760004FF6FF7101EA07314FF4005741EA0C01CF
:1017700007EA02321A43C16102622868C16921F492
:101780004061C1612868C169A26841EA0221C16162
:1017900081E710B5040003D094F83D0010B107E0D4
:1017A000012010BD002084F83C00204600F01EF807
:1017B000022084F83D00211D206801F00BFA012071
:1017C00084F8460084F83E0084F83F0084F8400026
:1017D00084F8410084F8420084F8430084F844000F
:1017E00084F8450084F83D00002010BD70470000DB
:1017F00030B50446002551B104290DD0082910D078
:1018000094F8410094F84520012811D10EE094F895
:101810003E0094F84220F7E794F83F0094F8432004
:10182000F2E794F8400094F84420EDE7012A01D053
:10183000012030BD022059B1042912D0082919D045
:1018400084F8410084F845000C2938D0012534E0A3
:1018500084F83E0084F842002068C26842F0020228
:1018600010E084F83F0084F843002068C26842F02A
:10187000040207E084F8400084F844002068C2684D
:1018800042F00802C2600122206801F0DFF90E492F
:101890002068884208D0B0F1804F05D00B498842BB
:1018A00002D00B49884204D1816801F00701062962
:1018B00003D0016841F001010160284630BD206875
:1018C000C26842F01002DDE7002C01400004004035
:1018D000000800402DE9F04104460068C66805692B
:1018E0004FF00007A90713D5B10711D5F91E016103
:1018F00001202077206880698007204602D0FFF70A
:10190000B5FE04E000F0A2F8204600F093F9277736
:10191000680716D5700714D521686FF004000861B8
:10192000022020772068806910F4407F204602D092
:10193000FFF79CFE04E000F089F8204600F07AF9F9
:101940002777280715D5300713D521686FF00800D1
:101950000861042020772068C0698007204602D0F3
:10196000FFF784FE04E000F071F8204600F062F911
:101970002777E80616D5F00614D521686FF0100019
:101980000861082020772068C06910F4407F204655
:1019900002D0FFF76BFE04E000F058F8204600F09C
:1019A00049F92777E80708D0F00706D021686FF0DB
:1019B00001000861204600F08DF9280608D53006A0
:1019C00006D521686FF0800008612046FFF7C2FC51
:1019D000680608D5700606D521686FF040000861DA
:1019E000204600F085F9A8060AD5B00608D521687A
:1019F0006FF0200008612046BDE8F041FFF7ABBC66
:101A0000BDE8F08100B585B00021009101910291FF
:101A100003910068B0F1804F11D10A48816941F00B
:101A2000040181618069694600F0040004900F2080
:101A300000900220019003900348FEF7D7FD05B007
:101A400000BD00000010024000080140064A016885
:101A5000914207D1007F012804D1002201030348ED
:101A6000FEF7BCBE7047000000080040000C0140BB
:101A700010B50446022249B104290ED0082913D01A
:101A800094F84100012816D0012010BD94F83E00C2
:101A90000128F9D184F83E200FE094F83F00012896
:101AA000F2D184F83F2008E094F840000128EBD1FF
:101AB00084F8402001E084F841200122206801F0F0
:101AC000C5F80F492068884203D1426C42F40042B5
:101AD00042642068884208D0B0F1804F05D009499F
:101AE000884202D00849884204D1816801F0070188
:101AF000062903D0016841F001010160002010BDFA
:101B0000002C0140000400400008004070B504466D
:101B100090F83C0000260D4601280FD0012084F8E3
:101B20003C006AB1042A1DD0082A2FD00C2A3FD0CD
:101B30000126002084F83C00304670BD022070BDB4
:101B4000206801F0A3F82068816941F008018161F3
:101B50002068816921F004018161206881692A6916
:101B6000114311E0206801F0B9F82068816941F45F
:101B7000006181612068816921F480618161206850
:101B800081692A6941EA02218161D2E7206801F076
:101B9000D1F82068C16941F00801C1612068C169BC
:101BA00021F00401C1612068C1692A69114311E073
:101BB000206801F0EBF82068C16941F40061C1615F
:101BC0002068C16921F48061C1612068C1692A6906
:101BD00041EA0221C161ACE710B5040003D094F8DA
:101BE0003D0010B107E0012010BD002084F83C004A
:101BF000204600F01EF8022084F83D00211D2068D8
:101C000000F0E8FF012084F8460084F83E0084F8E4
:101C10003F0084F8400084F8410084F8420084F8D2
:101C2000430084F8440084F8450084F83D00002017
:101C300010BD70477047000010B50446022249B13C
:101C400004290ED0082913D094F84100012816D099
:101C5000012010BD94F83E000128F9D184F83E20FF
:101C60000FE094F83F000128F2D184F83F2008E00B
:101C700094F840000128EBD184F8402001E084F87A
:101C800041200122206800F0E1FF0F4920688842CE
:101C900003D1426C42F4004242642068884208D07A
:101CA000B0F1804F05D00949884202D008498842E6
:101CB00004D1816801F00701062903D0016841F0D1
:101CC00001010160002010BD002C01400004004013
:101CD0000008004000680449884204D101228114B0
:101CE0000248FEF77BBD704700080040000C014031
:101CF0007047704770470000F8B5016804460868EF
:101D0000CA684B6910F00F0F4FF0000559D003F06F
:101D1000010602F49077374365D0C10705D0D1059D
:101D200003D5616C41F001016164410705D5D90714
:101D300003D0616C41F002016164810705D5D907C8
:101D400003D0616C41F004016164010707D502F022
:101D50002001314303D0616C41F008016164616C82
:101D600000293AD0800604D5900602D5204601F01D
:101D7000C9F820684069616CC0F38010090700D47D
:101D800060B3204601F097F820684069400621D5ED
:101D90002068143050E8001F21F0400140E8001294
:101DA000002AF5D1E06BA8B16D494163E06BFEF705
:101DB000E7FA002811D0E06B416B01B0BDE8F040BC
:101DC000084783060FD593060DD52046BDE8F84099
:101DD00001F098B82046FFF78DFFF8BD2046FFF7C9
:101DE00089FF6564F8BD266B2023012E7CD1C606D1
:101DF0007AD5D60678D508684868009048694FF0CB
:101E00000206400640D5E16B086840680004000CFB
:101E1000E8D0A28D8242E5D9E085886920282DD0BE
:101E200020680C3050E8001F21F4807140E8001257
:101E3000002AF5D12068143050E8001F21F001017C
:101E400040E80012002AF5D12068143050E8001F45
:101E500021F0400140E80012002AF5D184F8423018
:101E6000256320680C3050E8001F21F0100140E885
:101E70000012002AF5D1E06BFEF75FFA6663A08DD1
:101E8000E18D401A81B22AE0A08DE18D401A81B225
:101E9000E08D0028A6D00029A4D022680C3252E898
:101EA000000F20F4907042E80007002FF5D1206861
:101EB000143050E8002F22F0010240E80027002FE4
:101EC000F5D184F84230256320680C3050E8002FAB
:101ED00022F0100240E80023002BF5D16663204673
:101EE000FFF707FFF8BDFFE705062BD5150629D537
:101EF00094F841002128F5D1A068B0F5805F01D1A8
:101F00002069B0B1206A411C2162216800784860D4
:101F1000E08C401E0004000CE084E3D12068C1681E
:101F200021F08001C1602068C16841F04001C160BA
:101F3000D8E7206A0088C0F308004860206A801C47
:101F40002062E5E74006CDD55006CBD5CA682046CD
:101F500022F04002CA6084F8413000F0AAF8C1E7DC
:101F6000A72E000870B5040004D094F841000025A5
:101F700010B106E0012070BD84F84050204600F00A
:101F800023F8242084F841002068C16821F400511E
:101F9000C160204601F018F82068016921F49041E1
:101FA00001612068416921F02A0141612068C1680E
:101FB00041F40051C1606564202084F8410084F838
:101FC00042006563002070BDF0B585B00024064670
:101FD000009401940294039400682F49884258D1D8
:101FE0002E48816941F480418161816901F4804119
:101FF0000491816941F0080181618069284D00F0F8
:1020000008000490402000900220019003200390DB
:1020100069462846FEF7EAFA8027CDE9007469464A
:1020200028460294FEF7E2FA1E48416841F0E0615A
:1020300041F0040141601D4D1B4801C5102091C5B0
:102040001A4845F810496C61AC61EC61FEF78EFAF4
:1020500008B1FEF770F9B5636E62144D124844354D
:102060001430C5E90004C5E902472C616C61AC611C
:102070002846EC61FEF77AFA08B1FEF75CF9F563E1
:102080000022114625206E62FEF7CAFD2520FEF7CC
:10209000B9FD05B0F0BD000000380140001002405D
:1020A000000C01400000014044000240E00100201B
:1020B00070477047FEE701684A69D24352050FD462
:1020C0006FF480624A61002140F8301F2022427381
:1020D0008173026942F004020261017301207047BA
:1020E000002070472DE9F843044600680D46DDE9FD
:1020F000089701689846164641F4807101604B4686
:1021000000224FF001112046009700F06BF848B113
:1021100020680068C00502D54FF4007020640320D9
:10212000BDE8F883216805F0FE0008613B464A4699
:102130001549204600F09EF888B9206841698069F9
:1021400000903A464946204600F0F2F848B1206C2B
:10215000042804D12068016841F400710160012065
:10216000DEE7F5B2B8F1010F09D02168300A086145
:102170003A464946204600F0DBF80028E7D12068BF
:1021800005610020CCE700000200010070B5164692
:102190000D4604461EE02046FFF78DFF08B10120E2
:1021A00070BD681C16D0FEF71FFB801BA84200D82C
:1021B00085B920684069C04340070BD5002044F82A
:1021C000300F20216173A073216941F0200121614A
:1021D0002073E4E720684069C0434007DBD4002057
:1021E00070BD00002DE9F047984617460D4604469D
:1021F000C1F30746DDF820902AE000BFB8F1FF3FA9
:1022000026D0FEF7F1FAA0EB0901414502D8B8F15A
:10221000000F1DD12068012E16D0806925EA00002C
:102220000004000C12D00020B84211D1002044F864
:10223000300F20216173A073216941F020012161D9
:1022400020730120BDE8F0874069E7E70120EBE754
:102250002068012E0AD0806925EA00000004000CE5
:1022600006D00020B842C9D00020EBE74069F3E770
:102270000120F7E72DE9F047984616460D4604463B
:102280004FF000094FF0200AC1F3074723E0206810
:102290004069C043400515D42068016841F40071CD
:1022A000016021686FF480604861C4F8309084F860
:1022B0003DA084F83E90216C41F00401216484F833
:1022C0003C9021E0701C06D0FEF78EFAA0EB0800CF
:1022D000B04203D816B1012F1FD021E02068012F92
:1022E00015D0806925EA00000004000C18D000BF5A
:1022F00044F8309F84F80DA084F80E90216941F0D5
:102300002001216184F80C900120BDE8F08740692C
:1023100025EA00000004000CEAD12068406901E0D1
:102320002068806925EA00000004000CAFD1ECE7CA
:1023300070B516460D4604461EE02046FFF7BBFE6C
:1023400008B1012070BD681C16D0FEF74DFA801B45
:10235000A84200D885B920684069C04300060BD563
:10236000002044F8300F20216173A073216941F0EF
:10237000200121612073E4E720684069C043000622
:10238000DBD4002070BD00000D4808B5416941F064
:10239000010141614069002200F0010000901146F6
:1023A0000E20FEF73DFC0E20FEF72CFC002211460D
:1023B0000F20FEF735FCBDE808400F20FEF722BCD9
:1023C000001002402DE9F04F85B000242E48009403
:1023D000019402940394816941F010018161816943
:1023E00001F010010491816941F02001816181694E
:1023F00001F020010491816941F00401816181694A
:1024000001F004010491816941F008018161806952
:10241000DFF8789000F008004FF400550490002297
:1024200029464846FEF7DAF9DFF864A06F1000226B
:1024300039465046FEF7D2F9DFF858B04FF400485D
:10244000002241465846FEF7C9F9009502260125AB
:102450000396CDE9015469464846FEF7C7F8009750
:102460000396CDE9015469465046FEF7BFF8CDF812
:1024700000800396CDE9015469465846FEF7B6F848
:1024800005B0BDE8F08F00000010024000100140D0
:10249000000C0140000801400D4810B50B490160D7
:1024A0000C49416000214FF480428160C0E9031271
:1024B00041618161C1610162FEF79CF9002803D08E
:1024C000BDE81040FDF737BF10BD000000540040CC
:1024D00018000020801A06000D4810B50B49016055
:1024E0000C49416000214FF480428160C0E9031231
:1024F00041618161C1610162FEF77CF9002803D06E
:10250000BDE81040FDF717BF10BD000000580040A7
:102510006C000020801A060010B58EB000240794CD
:10252000089409940A940B941C2168460C94FDF7B6
:102530005FFE2A484FF0804101604721C0E9011445
:1025400040F2F311C0E9031480218161FEF738FFE6
:1025500008B1FDF7F0FE4FF48050079007A91F481F
:10256000FFF716F808B1FDF7E6FE1C48FFF734FB4D
:1025700008B1FDF7E0FE0B940BA918480C94FEF788
:10258000EBFE08B1FDF7D7FE6020CDE90004029410
:102590000022694611480494FFF7B8FA08B1FDF724
:1025A000CAFE042269460D48FFF7B0FA08B1FDF7EC
:1025B000C2FE082269460948FFF7A8FA08B1FDF7EC
:1025C000BAFE0C2269460548FFF7A0FA08B1FDF7EC
:1025D000B2FE0248FFF716FA0EB010BDC000002090
:1025E00010B58AB000242E480494059406940794EC
:1025F0000894099400940194029428490394C0E932
:1026000000144FF6FF71C0E902418021046181612D
:10261000FEF7D6FE08B1FDF78EFE4FF48050049011
:1026200004A91F48FEF7B4FF08B1FDF784FE1C485B
:10263000FFF7AFF808B1FDF77EFE089408A9184827
:102640000994FEF789FE08B1FDF775FE0120CDE97A
:10265000004002940022694611480394FFF707F8EE
:1026600008B1FDF768FE042269460D48FEF7FFFF3A
:1026700008B1FDF760FE082269460948FEF7F7FF3A
:1026800008B1FDF758FE0C2269460548FEF7EFFF3A
:10269000002801D0FDF74FFE0AB010BD0004004035
:1026A0000801002010B58EB0002407940894099406
:1026B0000A940B941C2168460C94FDF799FD1E4862
:1026C0001C49016040F29F51C0E901146321C0E937
:1026D000031480218161FEF773FE08B1FDF72BFE24
:1026E0004FF48050079007A91348FEF751FF08B137
:1026F000FDF721FE1048FFF76FFA08B1FDF71BFE4A
:102700000B940BA90C480C94FEF726FE08B1FDF7BC
:1027100012FE6020CDE900040294002269460648BA
:102720000494FFF7F3F9002801D0FDF704FE0EB082
:1027300010BD000000080040500100200C4810B5FA
:102740000A4901604FF4E1314160002181600C22AF
:10275000C160C0E904128161C161FFF703FC002878
:1027600003D0BDE81040FDF7E6BD10BD00380140C4
:10277000980100200B4810B509490160082101713A
:102780000221817100218172C1720173FEF77AFA10
:10279000002803D0BDE81040FDF7CDBD10BD0000FE
:1027A000005C004068020020FEE7FEE730B4002134
:1027B000084B0A465FF0000003EBC004401CC0B2A7
:1027C00062548028F8D3491CC9B20829F2D330BC1E
:1027D00000F0B0B84005002030B1012807D1002139
:1027E0005FF0A70000F094B90021A620FAE7704737
:1027F00010B558B1012810D10021C02000F088F98F
:102800000021A020BDE8104000F082B90021C820BE
:1028100000F07EF90021A120F4E710BD30B5CC080E
:1028200001F0070301259D40EBB2064D05EBC00505
:10283000C808285C0AB1184302E063EA0000C043FC
:10284000285530BD4005002010B50021AE2000F015
:102850005FF90021084600F05BF90021102000F02C
:1028600057F90021402000F053F90021812000F0A9
:102870004FF90021CF2000F04BF90021A12000F0FA
:1028800047F90021C82000F043F90021A62000F0FC
:102890003FF90021A82000F03BF900213F2000F083
:1028A00037F90021D32000F033F90021084600F069
:1028B0002FF90021D52000F02BF90021802000F015
:1028C00027F90021D92000F023F90021F12000F0A0
:1028D0001FF90021DA2000F01BF90021122000F07E
:1028E00017F90021DB2000F013F90021302000F05F
:1028F0000FF90021202000F00BF90021022000F048
:1029000007F900218D2000F003F90021142000F0C8
:10291000FFF8FFF74BFF0021BDE81040AF2000F0AB
:10292000F7B80246012000E05043491EC9B2FBD26D
:102930007047000070B5114E002400BF04F1B000D4
:10294000C0B2002100F0E4F80021084600F0E0F8F1
:102950000021102000F0DCF85FF0000506EBC50058
:102960000121005D00F0D4F86D1CEDB2802DF5D38F
:10297000641CE4B2082CE1D370BD000040050020C7
:102980002DE9FC4F1C460E4682468B460190082BD3
:102990000DD0600700D0012000EBD400610848434F
:1029A000C0B28146203AD0B2009000204BE0062011
:1029B000F7E7082C13D00C2C18D0102C1BD0182C97
:1029C00044D10098234900EBC00000BF01EB800117
:1029D000002711F80850E80712D00B9A13E000986E
:1029E0001D4900EB400001EB4001F1E700981B4955
:1029F00000EB4000EAE71A49009801EB0011E7E715
:102A00000B9828B3002231465046FFF707FF761C8B
:102A10007F1C6D08FFB2F6B2082FDCD30AF101006B
:102A200000F0FF0A082C0AD00199AAEB0100B0EBD4
:102A3000540F04D10BF108008A4600F0FF0B08F197
:102A400001005E46C0B280464845B2D3BDE8FC8F67
:102A50000122D8E71A4400088E370008B63900086A
:102A60002A3E00082DE9F84F0025DDE90A691F46D6
:102A700092468B468046082E00D1022500241CE099
:102A8000381B401EC1B20A20FFF74BFFBAFBF0F023
:102A90000A21B0FBF1F201FB1200CDF8009080B1E9
:102AA0003030C2B205EB560101FB0480C0B23346A0
:102AB0005946FFF765FF641CE4B2BC42E0D3BDE8B1
:102AC000F88F05EB560101FB0480C0B2334630227B
:102AD000EEE72DE9F8411E46154688460446079F55
:102AE0000BE03346414620460097FFF749FF082E8A
:102AF0000AD004EB5600C4B26D1C2A78A2F1200063
:102B00005E28EED9BDE8F881A41DE4B2F4E7000028
:102B100003B583B0012203ABCDE900324FF48070DE
:102B20000290134609B1402200E0002278210248B9
:102B3000FDF724FF05B000BD180000207047704766
:102B4000FEF708B830B593B028216846FDF750FB72
:102B500014210AA8FDF74CFB002401200F941094C7
:102B60001194010412948DE8130004904FF4E010C6
:102B7000CDE90810022507956846FEF747FA08B127
:102B800072B6FEE70F20CDE90A054FF48060CDE96B
:102B90000C4002210AA80E94FEF75CF908B172B647
:102BA000FEE710200F9012940FA8FEF7DDF8002822
:102BB00001D072B6FEE713B030BD70470148FEF792
:102BC00089BE0000080100200148FEF783BE000016
:102BD00050010020F0B50268194B1A4C1A4D4FF005
:102BE0008047984205D0B84203D0A04201D0A84205
:102BF00003D122F070064A683243984205D0B842A9
:102C000003D0A04201D0A84203D122F44074CA6884
:102C100022434C6922F08002224302608A68C26229
:102C20000A688262984201D1096901630121416108
:102C30000169C90703D0016921F001010161F0BDFB
:102C4000002C0140000400400008004010B501F0D5
:102C50001F030121046A99408C430462016A9A406F
:102C60001143016210BD10B5846842EA032224F4C6
:102C70007F440A432243826010BD826822F07002C2
:102C80000A4342F0070181607047000030B5036AD3
:102C9000026A22F0010202624268846924F073052C
:102CA0000C682C4323F002058B682B430A4DA84285
:102CB0000BD123F00805CB6822F440722B434D69F9
:102CC00023F0040315438A692A43426084614968FA
:102CD0004163036230BD0000002C014030B5026A40
:102CE000036A23F010030362436884690D6824F4C7
:102CF000E64444EA05248D6822F0200242EA0512E7
:102D00000B4DA8420ED1CD6822F0800242EA051296
:102D10004D6923F4406343EA85038D6922F0400244
:102D200043EA85034360846149688163026230BD80
:102D3000002C014030B5036A026A22F480720262FC
:102D40004268C46923F4007324F073050C682C43B3
:102D50008D6843EA05230C4DA8420ED1CD6823F4BB
:102D6000006343EA05234D6922F4405242EA05120A
:102D70008D6923F4806342EA05124260C4614968A8
:102D8000C163036230BD0000002C014030B5046A0D
:102D9000026A22F4805202624268C3690D6823F419
:102DA000E64343EA05238D6824F4005444EA0534DD
:102DB000064DA84204D14D6922F4804242EA8512B0
:102DC0004260C36149680164046230BD002C014067
:102DD00010B5036A046A24F001040462846924F0D3
:102DE000F00444EA021423F00A020A4384610262F6
:102DF00010BD000070B5056A046A24F00104046285
:102E000084690F4EB04208D0B0F1804F05D00D4E0E
:102E1000B04202D00C4EB04203D124F0030414435C
:102E200001E044F001041A0724F0F00444EA1262BD
:102E300025F00A0301F00A0119438261016270BDA5
:102E4000002C0140000400400008004010B5036A57
:102E5000046A24F010040462846923F0A00324F4BB
:102E6000704444EA023243EA01118261016210BDFA
:102E700030B5046A056A25F010050562856925F4F8
:102E8000407545EA022222F470454FF6FF7202EACD
:102E9000033224F0A0032A43A02404EA01111943B9
:102EA0008261016230BD10B5406A0021C185C184D4
:102EB000FEF720FF10BD01680C3151E8002F22F40D
:102EC000907241E80023002BF5D10168143151E8DC
:102ED000002F22F0010241E80023002BF5D1016B05
:102EE000012909D101680C3151E8002F22F01002AC
:102EF00041E80023002BF5D1202180F84210002169
:102F00000163704708B590F84210222901D00220D1
:102F100008BD82684FF480539A4201D1016921B102
:102F2000816A9A421BD04AB10AE00268816A5268FB
:102F3000C2F308020A80816A891C08E0026972B142
:102F40000268526802F07F020A70816A491C81623D
:102F5000C18D491E0904090CC18503D01BE002681C
:102F60005268F1E70168CA6822F02002CA6001686D
:102F7000CA6822F48072CA6001684A6922F00102BC
:102F80004A61202180F8421000214163026B012A2E
:102F900003D0FFF78DF8002008BD016301680C31F4
:102FA00051E8002F22F0100241E80023002BF5D158
:102FB00001680A68D20602D50A6849680091818DC5
:102FC000FEF797FEE7E7000070B504460068016968
:102FD000E26821F44051114301612169A06808436E
:102FE000616908432168CA6841F20C639A4302434D
:102FF000CA6020684169A26921F4407111434161AE
:103000001E492068884202D1FDF7CAFF01E0FDF7A2
:10301000B7FF00EBC00101EB001260686421800083
:10302000B2FBF0F3B3FBF1F36FF018067343B2FB9E
:10303000F0F5B2FBF0F605EB8305322303EB051543
:10304000B5FBF1F5B6FBF1F605F0F00505EB06155D
:10305000B2FBF0F6B2FBF0F0B0FBF1F06FF018024B
:10306000504306EB800003EB0010B0FBF1F0216849
:1030700000F00F002844886070BD00000038014057
:103080000148FEF739BE000098010020002070477B
:1030900000207047012120F8401F0021018081801D
:1030A00001820846704730F8401F21F43F410180FB
:1030B0000020704700207047FEE70907090E00282E
:1030C00004DB00F1E02080F80014704700F00F00EE
:1030D00000F1E02080F8141D7047000010B504488E
:1030E000FEF702FABDE8104000210148FEF7C0BC1F
:1030F000500100201CB5174C15496088A1F14C0304
:1031000031F81020401C228080B2608033F81220F9
:10311000114B1B689A6231F8100000F012FA00227D
:103120000E4B00F021FA00F0DFF9FDF74DFA608850
:103130000121401C82B262800C20CDE900010223F3
:1031400000214020FFF78EFCBDE81C4000F0C4B811
:10315000EA55000810000020500100200060534094
:10316000642800D9642006490A68D16A89B2491CDA
:1031700041436420B1FBF0F080B25063704700001F
:103180005001002009486FF00101026811610268D6
:103190006FF0020111610168CA6842F00102CA6061
:1031A0000068C16841F00201C16070475001002011
:1031B0008AB0FDF7D7FCFFF7C5FCFFF703F9FFF76F
:1031C000E3F8FFF7BBFAFFF767F9FFF7A5F9FFF799
:1031D00007FAFFF781F9FFF765FAFFF7CBFA00214D
:1031E0003448FEF729FD04213248FEF725FD082169
:1031F0003048FEF721FD0C212E48FEF71DFD2E481C
:10320000FEF79AF900212C48FEF7F2FA04212A4829
:10321000FEF7EEFA08212848FEF7EAFA0C212648C4
:10322000FEF7E6FAFFF710FB0020FFF7D5FA0020C3
:10323000FFF7DEFAFFF752FFFFF7A4FF3220FFF798
:103240008FFF4FF4FA7500BFFDF7CEFA0446FFF783
:1032500051FFB4FBF5F005FB10400028F4D14FF40A
:1032600000511648FDF7B2FA15A101A8FCF7ACFF12
:10327000012400210C2301AA08460094FFF729FC31
:1032800011A101A8FCF7A0FF0C2301AA19460020F8
:103290000094FFF71EFC0EA101A8FCF795FF0C237C
:1032A00001AA182100200094FFF713FCFFF742FB4E
:1032B000CAE70000C0000020080100200010014003
:1032C00050495443483A0000524F4C4C3A000000D9
:1032D0005941573A000000005D4908B55B484988EC
:1032E00030F81110012025291FD2DFE801F0131753
:1032F00022262A2E32363A3E42464A4E52565A5ECE
:1033000062666A6E72767A7E82868A8E92969A9EBD
:10331000A2A6AA000C234FA2009002E00C234EA20A
:1033200000900C214020FFF7D4FBBDE80840FFF7D8
:1033300001BB0C2349A20090F3E70C2348A20090A4
:10334000EFE70C2347A20090EBE70C2346A2009086
:10335000E7E70C2345A20090E3E70C2344A200908A
:10336000DFE70C2343A20090DBE70C2342A200908E
:10337000D7E70C2341A20090D3E70C2340A2009092
:10338000CFE70C233FA20090CBE70C233EA2009096
:10339000C7E70C233DA20090C3E70C233CA200909A
:1033A000BFE70C233BA20090BBE70C233AA200909E
:1033B000B7E70C2339A20090B3E70C2338A20090A2
:1033C000AFE70C2337A20090ABE70C2336A20090A6
:1033D000A7E70C2335A20090A3E70C2334A20090AA
:1033E0009FE70C2333A200909BE70C2332A20090AE
:1033F00097E70C2331A2009093E70C2330A20090B2
:103400008FE70C232FA200908BE70C232EA20090B5
:1034100087E70C232DA2009083E70C232CA20090B9
:103420007FE70C232BA200907BE70C232AA20090BD
:1034300077E70C2329A2009073E70C2328A20090C1
:103440006FE70C2327A200906BE70000EA55000805
:10345000100000202D2D2D002D4320002D43230092
:103460002D4420002D4423002D4520002D46200012
:103470002D4623002D4720002D4723002D412000FD
:103480002D4123002D422000204320002043230013
:103490002044200020442300204520002046200016
:1034A0002046230020472000204723002041200001
:1034B00020412300204220002B4320002B432300E7
:1034C0002B4420002B4423002B4520002B462000BA
:1034D0002B4623002B4720002B4723002B412000A5
:1034E0002B4123002B4220004FEA1153A3F58063A8
:1034F000D3F11E03A8BFD3F1200C08DB4FF000422C
:1035000042EAC12252EA505232FA03F070470942AD
:103510000BD4102BC4BF0020704703F5787CBCF19E
:10352000FF3F05D04FF0FF3070474FF0000070476D
:1035300070B500F0C3F800BF4992248000207047A6
:10354000F0E7B0FA80F310FA03F10AD0C3F11D03DB
:1035500003F580634FEA41504FEA035202EBD12159
:1035600070474FF000007047DFF848C170B51CEAA3
:10357000111E1EBF1CEA13159EEA0C0F95EA0C0FD4
:1035800000F06F8081EA030423EA4C134EEAD47EF4
:1035900021EA4C1141F4801143F48013AE44A1FBA5
:1035A000024CA0FB0365AEF17F7E361955EB0C058E
:1035B000A1FB034C4CF10003A0FB021C16EB0C0614
:1035C000654153F10003094218BF46F0010613F4A8
:1035D000007F0BD14FEA03314FEA0530340341EA53
:1035E000155140EA16506FF003020AE04FEAC3217A
:1035F0004FEAC520F40241EA555140EA56506FF0B7
:10360000020202EB2E4201EB025585EACE710AD08E
:103610005FEA440C18BF24F0004450F1000041F16F
:10362000000120EAD47040F2FE7C624500D270BDF9
:10363000A84214BF4FF080444FF04044002E08BF12
:103640000024BEF1806FA8BFA1F1C041BDE8704069
:1036500080F282804FF0000001F1C04101F0004192
:1036600070479EEA0C0F0CEA131518BF95EA0C0F71
:1036700006D04FF0000081EA030E0EF0004170BD4D
:1036800000F01CF88900013E00F007B800F009B80E
:103690004FEA430C5FEA5C5C08D081EA030100F06A
:1036A0005BB84FEA410C5FEA5C5CF6D14FF000007A
:1036B000014970470000FF070000F87F0EF1020E7D
:1036C0002EF0030E5EF8046B364205D4012A43EB5C
:1036D000030515F5001F12D8012841EB010C1CF55C
:1036E000001F0CD80ED14FEAD17C15F5001F0CEB52
:1036F0004C0C0CF1020C08BF4CEBD37C04E04FF0F7
:10370000080C01E04FEAD37C0CEB4C0526FA05F6D9
:1037100006F00706B6F1040C06D20EEB860CBDE8E7
:1037200070404CF0010C6047DFE80CF0090B02021E
:103730004FF000414FF00000A1F5002170BD194687
:103740001046012851EB010418BFD4F5001484BFC2
:10375000002001F0004170BD0808A0F500114FEAFB
:1037600031017047010202030405060708090A0B2C
:103770000C0D0E0F101000000000000000000102F0
:10378000030406070809000000000102030400000A
:10379000000000000000002F0000000007000700EC
:1037A00000147F147F1400242A7F2A120062640808
:1037B0001323003649552250000005030000000085
:1037C0001C224100000041221C000014083E081485
:1037D0000008083E0808000000A060000008080873
:1037E0000808000060600000002010080402003E8D
:1037F0005149453E0000427F400000426151494628
:10380000002141454B31001814127F100027454517
:103810004539003C4A494930000171090503003629
:103820004949493600064949291E0000363600003C
:103830000000563600000008142241000014141441
:10384000141400004122140800020151090600323C
:103850004959513E007C1211127C007F494949367A
:10386000003E41414122007F4141221C007F4949E5
:103870004941007F09090901003E4149497A007F19
:103880000808087F0000417F4100002040413F01BF
:10389000007F08142241007F40404040007F020C1E
:1038A000027F007F0408107F003E4141413E007FBF
:1038B00009090906003E4151215E007F0919294688
:1038C0000046494949310001017F0101003F404064
:1038D000403F001F2040201F003F4038403F006312
:1038E0001408146300070870080700615149454334
:1038F00000007F41410000552A552A5500004141F2
:103900007F000004020102040040404040400000EB
:1039100001020400002054545478007F4844443885
:1039200000384444442000384444487F003854540C
:10393000541800087E0901020018A4A4A47C007F8A
:10394000080404780000447D4000004080847D002D
:10395000007F102844000000417F4000007C0418D4
:103960000478007C0804047800384444443800FC9F
:10397000242424180018242418FC007C08040408BB
:1039800000485454542000043F444020003C404030
:10399000207C001C2040201C003C4030403C004467
:1039A00028102844001CA0A0A07C004464544C446F
:1039B000141414141414000000000000000000008F
:1039C00000000000FC000000000002000000000CED
:1039D000020C020000000000000090D0BCD0BC909F
:1039E0000003000300001824FE448C0003020702B9
:1039F00001001824D8B04C80000300010201C03837
:103A0000E438E000010202010202080600000000A2
:103A1000000000000000000000F8040200000001A7
:103A20000204000204F8000000040201000090609B
:103A3000F86090000000010000002020FC20200021
:103A40000000010000000000000000000806000067
:103A500000002020202020000000000000000000C6
:103A6000000000000002000000000080601C020056
:103A7000040300000000F8040404F800010202023C
:103A800001000008FC00000000020302000018848E
:103A90004424180003020202020008042424D8006F
:103AA00001020202010040B088FC80000000000317
:103AB00002003C242424C400010202020100F82474
:103AC000242CC0000102020201000C04E41C0400CA
:103AD000000003000000D8242424D80001020202C0
:103AE000010038444444F8000003020201000000D1
:103AF0001000000000000200000000002000000094
:103B000000000600000000205088040200000000B1
:103B100001029090909090000000000000000002D0
:103B2000048850200002010000001804C42418007A
:103B3000000002000000F804E494F8000102020210
:103B4000020000E09CF0800002030000030204FC7D
:103B50002424D800020302020100F80404040C002B
:103B600001020202010004FC0404F8000203020244
:103B7000010004FC24740C0002030202030004FC94
:103B800024740C00020302000000F0080444CC403E
:103B900000010202010004FC2020FC0402030000DA
:103BA00003020404FC0404000202030202000004F5
:103BB00004FC040406040403000004FC24D00C04E8
:103BC00002030200030204FC0400000002030202DC
:103BD0000203FC3CC03CFC0003000300030004FCA7
:103BE00030C4FC04020302000300F8040404F800DB
:103BF00001020202010004FC242418000203020056
:103C00000000F8848404F80001020207050004FCA7
:103C100024649800020302000302182424448C0048
:103C20000302020201000C04FC040C000002030267
:103C3000000004FC0000FC04000102020100047CFE
:103C400080E01C040000030000001CE03CE01C00BD
:103C5000000300030000049C609C040002030003B6
:103C60000200041CE01C04000002030200000C849B
:103C7000641C04000203020203000000FE020200B2
:103C8000000007040400000E30C000000000000126
:103C90000200000202FE000000040407000000040D
:103CA000020400000000000000000000000000000E
:103CB00008080808080800000200000000000000D2
:103CC00000000040A0A0C00000010202030204FCAA
:103CD0002020C00000030202010000C0202060007C
:103CE00000010202020000C02024FC0000010202C8
:103CF000030200C0A0A0C0000001020202000020D8
:103D0000F82424040002030202000040A0A0602066
:103D100000070A0A0A0404FC2020C0000203020073
:103D200003020020E4000000000203020000000083
:103D300020E4000008080807000004FC80E02020C0
:103D40000203020003020404FC000000020203025A
:103D50000200E020E020C00003000300030020E098
:103D60002020C00002030200030200C02020C00087
:103D700000010202010020E02020C000080F0A021A
:103D8000010000C02020E0000001020A0F0820E02E
:103D9000402020000203020000000060A0A02000DC
:103DA0000002020203000020F820000000000102CF
:103DB000020020E00020E00000010202030220E0F7
:103DC000208060200000030100006080E08060002F
:103DD0000003000300002060806020000203000355
:103DE000020020E020806020080807010000002079
:103DF000A0602000000203020200000020DE02009A
:103E0000000000070400000000FF00000000000F99
:103E100000000002DE200000000407000000020194
:103E20000204040200000000000000000000000086
:103E300000000000000000000000000000F800008A
:103E40000000000000333000000000100C06100CD1
:103E50000600000000000000000040C07840C0786C
:103E60004000043F04043F040400007088FC083054
:103E70000000001820FF211E0000F008F000E018EC
:103E8000000000211C031E211E0000F008887000A5
:103E900000001E2123241927211010160E000000F7
:103EA00000000000000000000000000000E0180416
:103EB0000200000000071820400000020418E00083
:103EC00000000040201807000000404080F08040C3
:103ED00040000202010F01020200000000F0000099
:103EE00000000101011F01010100000000000000AD
:103EF000000080B070000000000000000000000022
:103F000000000001010101010101000000000000AA
:103F10000000003030000000000000000000806061
:103F20001804006018060100000000E010080810E6
:103F3000E000000F102020100F00001010F800000B
:103F400000000020203F20200000007008080888A2
:103F50007000003028242221300000300888884872
:103F600030000018202020110E000000C02010F8A2
:103F7000000000070424243F240000F80888880873
:103F800008000019212020110E0000E01088881878
:103F90000000000F112020110E0000380808C8385A
:103FA00008000000003F000000000070880808883A
:103FB0007000001C222121221C0000E010080810C3
:103FC000E0000000312222110F00000000C0C000FC
:103FD0000000000000303000000000000080000001
:103FE0000000000080600000000000008040201001
:103FF00008000001020408102000404040404040FA
:10400000400004040404040404000008102040805C
:104010000000002010080402010000704808080891
:10402000F0000000003036010000C030C828E81061
:10403000E0000718272423140B000000C038E0001C
:104040000000203C23020227382008F88888887066
:104050000000203F202020110E00C0300808080872
:104060003800071820202010080008F80808081059
:10407000E000203F202020100F0008F88888E80882
:104080001000203F20202320180008F88888E80826
:104090001000203F200003000000C030080808384E
:1040A000000007182020221E020008F8080000085F
:1040B000F808203F210101213F20000808F80808E6
:1040C00000000020203F2020000000000808F80821
:1040D0000800C08080807F00000008F888C0281891
:1040E0000800203F20012638200008F808000000C2
:1040F0000000203F20202020300008F8F800F8F8C9
:104100000800203F003F003F200008F830C00008B2
:10411000F808203F200007183F00E01008080810AA
:10412000E0000F10202020100F0008F808080808F1
:10413000F000203F210101010000E01008080810F4
:10414000E0000F18242438504F0008F88888888829
:104150007000203F2000030C302000708808080801
:1041600038000038202121221C00180808F808080F
:1041700018000000203F2000000008F80800000898
:10418000F808001F202020201F000878880000C8A1
:104190003808000007380E010000F80800F8000891
:1041A000F800033C0700073C03000818688080689B
:1041B000180820302C03032C30200838C800C838D9
:1041C00008000000203F2000000010080808C83840
:1041D00008002038262120201800000000FE0202DE
:1041E00002000000007F40404000000C30C0000092
:1041F0000000000000010638C00000020202FE00BC
:104200000000004040407F00000000000402020265
:10421000040000000000000000000000000000009A
:104220000000808080808080808000020204000086
:10423000000000000000000000000000808080807E
:1042400000000019242222223F2008F8008080006C
:104250000000003F112020110E000000008080802F
:104260000000000E11202020110000000080808836
:10427000F800000E112020103F2000008080808078
:104280000000001F222222221300008080F0888874
:1042900088180020203F20200000000080808080BF
:1042A0008000006B94949493600008F800808080F4
:1042B0000000203F210000203F200080989800004F
:1042C00000000020203F202000000000008098987F
:1042D000000000C08080807F000008F8000080801F
:1042E0008000203F24022D302000000808F8000044
:1042F00000000020203F20200000808080808080FF
:104300008000203F20003F20003F80800080808090
:104310000000203F210000203F200000808080809E
:104320000000001F202020201F00808000808000CF
:10433000000080FFA12020110E000000008080807E
:104340008000000E112020A0FF80808080008080EF
:10435000800020203F21200001000000808080801C
:1043600080000033242424241900008080E0808011
:1043700000000000001F202000008080000000805E
:104380008000001F202020103F20808080000080BF
:10439000808000010E3008060100808000800080CF
:1043A00080800F300C030C300F0000808000808074
:1043B00080000020312E0E3120008080800000809F
:1043C000808080818E70180601000080808080804F
:1043D00080000021302C2221300000000000807C71
:1043E000020200000000003F404000000000FF000B
:1043F000000000000000FF0000000002027C8000BE
:1044000000000040403F00000000000601010202E1
:104410000404000000000000000000000000000094
:10442000000000000000000000000000000000008C
:10443000000000000000000000000000000000007C
:10444000000000F0F0F0000000000000000000019B
:104450007F010000000000000000001C1C1C000088
:10446000000000008060301C8C60301C0C000000DC
:10447000000000000000000000000000000000003C
:10448000000000000000000000E00000000000E06C
:1044900000000086E69F86868686E69F86000001ED
:1044A0001F01010101011F010100000080C0602007
:1044B000F820E0C00000000003070C18FF70E18145
:1044C00000000000070F10107F100F070000806031
:1044D000206080000000E02000000F3020309F703E
:1044E000DC371030C0000000100E03000718101851
:1044F00007000000C02020E0C0000000000080E0B5
:104500001F38E88703C43C040000070F1810100B85
:10451000070D1010080000808C4C380000000000CF
:10452000000000000000000000000000000000008B
:10453000000000000000000000000000000000007B
:1045400080E0300804000000000000FEFF010000D1
:104550000000000000000000030F182040000004CD
:104560000830E0800000000000000000000001FFB3
:10457000FE0000000000004020180F0300000000B3
:104580000000000000000000C00000000000004229
:1045900066663C18FF183C6666420000000000009A
:1045A0000300000000000000000000008000000088
:1045B0000000001010101010FF101010101000005C
:1045C00000000000030000000000000000000000E8
:1045D00000000000000000000000000000000000DB
:1045E000000000808C4C380000000000000000003B
:1045F000000000000000000000000010101010106B
:10460000101010101000000000000000000000005A
:10461000000000000000000000000000000000009A
:104620000000000000000000000000001C1C1C0036
:104630000000000000000000000000000000E03862
:104640000C000000000080701C03000000000060EF
:10465000380E0100000000000000000080C0602053
:104660002060C080000000FEFF010000000001FF8C
:10467000FE000001070E181010180E0701000000C0
:10468000808080C0E000000000000000000000FF0B
:10469000FF000000000000001010101F1F1010107D
:1046A00000000080402020202060C0800000000327
:1046B0000300804020381F070000001C1A1918183A
:1046C0001818181F00000080C020202060C0800043
:1046D0000000000303001010182FE78000000007FF
:1046E0000F10101010180F0700000000000000004D
:1046F000C0E0F000000000C0B088868180FFFF802D
:104700008000000000000010101F1F1010000000AB
:10471000E060606060606060000000003F100808BA
:104720000818F0E0000000070B101010101C0F0319
:104730000000000080C040202020E0C0000000FCFD
:10474000FF211008080818F0E0000001070C1810FD
:104750001010080F03000000C0E06060606060E0BF
:104760006000000003000000E018070000000000E7
:104770000000001F1F00000000000080C06020201B
:10478000202060C080000087EF2C1818303068CFE0
:10479000830000070F0810101010180F070000000A
:1047A000C0C020202020C0800000001F3F6040408B
:1047B000402010FFFE0000000C1C101010080F031A
:1047C00000000000000000000000000000000000E9
:1047D0000000000E0E0E0000000000000000001C93
:1047E0001C1C000000000000000000000000000091
:1047F000000000000000000C0C00000000000000A1
:104800000000005838000000000000000000000018
:1048100000804020100000001028448201000000A9
:104820000000000000000000010204081000000069
:1048300000000000000000000000008484848484E4
:1048400084848484840000000000000000000000D4
:104850000000000010204080000000000000000068
:10486000000000000182442810000000100804022B
:1048700001000000000000C020201010101030E0E7
:10488000C0000003030000F010080C070300000044
:1048900000001C1C1C0000000000000000C0406064
:1048A00020202040C00000FCFF01F00E03C1FE03E9
:1048B000807F0001070E0811111011090402000089
:1048C000000080E0E000000000000000807C434029
:1048D000477FF880000010181F1000000000131F11
:1048E0001C1020E0E02020202060C080000000FF9D
:1048F000FF10101010182FE78000101F1F1010104D
:104900001010180F0700000080C0402020202060F9
:10491000E00000FCFF0100000000000001000001B9
:10492000070E181010100804030020E0E0202020DB
:104930002040C080000000FFFF000000000001FFD9
:10494000FE00101F1F10101018080E07010020E0B5
:10495000E020202020202060800000FFFF101010A9
:10496000107C00000000101F1F10101010101018F5
:10497000060020E0E020202020206060800000FF72
:10498000FF101010107C00000100101F1F1000000D
:10499000000000000000000080C06020202040E0F7
:1049A000000000FCFF0100004040C0C14040000189
:1049B000070E181010100F0F000020E0E02000007C
:1049C000000020E0E02000FFFF101010101010FF8A
:1049D000FF00101F1F1000000000101F1F1000001C
:1049E000202020E0E020202000000000000000FF48
:1049F000FF000000000000001010101F1F1010101A
:104A0000000000000000202020E0E0202020000026
:104A10000000000000FFFF0000000060E0808080D8
:104A2000C07F3F00000020E0E020000020A06020C8
:104A3000200000FFFF30187CE3C000000000101FC2
:104A40001F10000001131F1C181020E0E0200000C0
:104A500000000000000000FFFF0000000000000058
:104A60000000101F1F10101010101018060020E07A
:104A7000E0E000000000E0E0E02000FF013FFEC0B9
:104A8000E01E01FFFF00101F1000031F0300101F96
:104A90001F1020E0E0C0000000000020E02000FF28
:104AA0000003071C78E08000FF00101F10000000CA
:104AB0000000030F1F00000080C060202060C08045
:104AC000000000FEFF010000000000FFFE000001EA
:104AD000070E181010180C07010020E0E02020201D
:104AE000202060C0800000FFFF2020202020301FF9
:104AF0000F00101F1F100000000000000000000049
:104B000080C060202060C080000000FEFF01000027
:104B1000000000FFFE000001070E1111133C7C672E
:104B2000210020E0E0202020202060C0800000FF45
:104B3000FF101030F0D0080F0700101F1F100000EA
:104B400000030F1C10100080C06020202020404077
:104B5000E00000070F0C1818303060E08100001FE3
:104B60000C0810101010180F07008060202020E0A3
:104B7000E020202060800100000000FFFF00000016
:104B8000000100000000101F1F100000000020E0C6
:104B9000E020000000000020E02000FFFF000000F7
:104BA00000000000FF0000070F1810101010100880
:104BB00007002060E0E02000000020E0602000000E
:104BC000077FF88000807C03000000000000071FC2
:104BD0001C070000000020E0E02000E0E0200020B2
:104BE000E0200007FFF8E01FFFFCE01F00000000CE
:104BF000031F0300011F03000000002060E0A0006D
:104C00000020E0602000000000038F7CF8C6010057
:104C100000000010181E130001171F18100020605C
:104C2000E0E02000000020E06020000001073EF8E6
:104C3000E0180700000000000010101F1F101000F7
:104C4000000000806020202020A0E0E02000000084
:104C50000000C0F03E0F0300000000101C1F1710E2
:104C60001010101806000000000000FC04040404EA
:104C700004000000000000FF000000000000000031
:104C80000000007F404040404000000010E0000075
:104C900000000000000000000000031C6080000015
:104CA000000000000000000000030C708000000005
:104CB0000404040404FC00000000000000000000E4
:104CC00000FF00000000000040404040407F000026
:104CD000000000000010080C040C08100000000088
:104CE00000000000000000000000000000000000C4
:104CF00000000000000000000000000000000000B4
:104D000000000000000000000000000000008080A3
:104D10008080808080808080808000000004040883
:104D2000080000000000000000000000000000007B
:104D30000000000000000000000000000000000073
:104D400000000000000000000000000098D844644B
:104D50002424FCF80000000F1F18101010081F1F5B
:104D600010180020E0F0000000000000000000002B
:104D7000FFFF180804040CF8F00000001F0F1810C3
:104D80001010180F030000000000000000000000D9
:104D9000000000E0F8180404043C380000000003A0
:104DA0000F0C10101010080600000000000000009A
:104DB0000020E0F0000000E0F81C04040408FFFFFD
:104DC000000000030F18101010081F0F080000004B
:104DD000000000000000000000000000E0F848446F
:104DE00044444C7870000000030F0C181010100899
:104DF00004000000000080C0602020E0C00000042B
:104E00000404FFFF040404040000000010101F1F2E
:104E10001010100000000000000000000000000062
:104E20000000000070F88C04048CF874040C00700E
:104E300076CF8D8D8D89C87870000020E0F000005D
:104E40000000000000000000FFFF08040404FCF85C
:104E5000000000101F1F100000101F1F1000000096
:104E6000000000606000000000000000040404FC7A
:104E7000FC000000000000001010101F1F10101098
:104E80000000000000000000006060000000000062
:104E90000000040404FCFC0000000000C0C080808E
:104EA000C07F3F0000000020E0F000000000000094
:104EB00000000000FFFF80C0F41C0404000000108C
:104EC0001F1F1100031F1C1010000000202020E0F5
:104ED000F000000000000000000000FFFF000000E4
:104EE000000000001010101F1F1010100000000024
:104EF0000000000000000000000004FCFC0804FCAE
:104F0000FC0804FCFC00101F1F10001F1F10001FD6
:104F10001F1000000000000000000000000000045E
:104F2000FCFC08080404FCF8000000101F1F10001F
:104F300000101F1F10000000000000000000000013
:104F4000000000E0F0180C04040C18F0E00000036E
:104F50000F0C101010100C0F0300000000000000D8
:104F60000000000000000004FCFC080404040CF82D
:104F7000F0000080FFFF889010101C0F030000005D
:104F80000000000000000000000000E0F81C040425
:104F90000408F8FC000000030F1810109088FFFFB1
:104FA0008000000000000000000000000000040479
:104FB00004FCFC100804040C0C001010101F1F103F
:104FC00010100000000000000000000000000000C1
:104FD000000000003078CCC48484840C1C000000E5
:104FE0001E1810101011190F06000000000000C05C
:104FF00000000000000000040404FFFF040404009B
:105000000000000000000F1F1010100C0000000036
:10501000000000000000000000000004FCFE000092
:105020000004FCFE000000000F1F181010081F0FE6
:105030000800000000000000000000000000000464
:105040000C3CFCC40000C43C0C0400000000010F38
:105050001E0E010000000000000000000000000023
:105060000000043CFCC400E47CFC84807C04000060
:10507000071F070000071F070000000000000000D6
:105080000000000000000004041C7CE4C0341C0488
:1050900004000010101C1601131F1C181000000043
:1050A0000000000000000000000000040C3CFCC4F4
:1050B00000C43C0404000000C080C1370E010000A1
:1050C00000000000000000000000000000000000E0
:1050D0001C0404C4F47C1C0400000000101C1F17F6
:1050E000111010180E0000000000000000F80C0461
:1050F000000000000000001028EF00000000000089
:1051000000000000003F60400000000000000000C0
:10511000FF0000000000000000000000FF00000091
:105120000000000000000000FF0000000000000080
:10513000040CF80000000000000000000000EF2850
:10514000100000000000000040603F000000000070
:105150000000001806020204081020203008000099
:10516000000000000000000000000000000000003F
:105170000000000000000000F010101010FF1010E0
:105180001010F000000000000F04040404FF0404E9
:1051900004040F0000004040405F555555755555BB
:1051A000555F404040000040200F094989790909B6
:1051B000090F2040000000FE02424ACA4A4ACA4A79
:1051C0004A4202FE000000FF40504C4340404F5016
:1051D000505C40FF00000000F888888888FF8888BD
:1051E0008888F800000000001F080808087F8888E9
:1051F00088889F80F00080828282828282E2A292EE
:105200008A8682808000000000000040807F0000CD
:10521000000000000000101010FF1090088888881F
:10522000FF88888808000444827F01808040432CE6
:105230001028468180000010101010D030FF30D0B0
:10524000121C1010000010080402010000FF0000F2
:1052500001020408100004040484E43C27242424EC
:1052600024E40404040004020100FF0909090949B7
:10527000897F0000000000FE225A8600FE92929272
:105280009292FE00000000FF04080700FF40200388
:105290000C142241400000804020180680000718AE
:1052A00020408000000001002070282621202024BA
:1052B00038600001010000101292929292929212B4
:1052C0001202FE0000000000003F101010103F000E
:1052D00040807F000000000000C0808080808080CF
:1052E00080FC84808080808080C0C000000000003E
:1052F00000FF7F404040404040FF40404040404031
:1053000040FF7F00000000000000000000000000DF
:10531000007F70000000000000000000000000009E
:1053200000000000000000000000000000FCF80089
:10533000000000000000000000000000000000006D
:105340000000FFFE020202020202020202FFFF024E
:105350000202020202020202FF030000000000003B
:1053600000001F1F040404040404040404FFFF04D9
:1053700004040404040404041F00000000000000EE
:10538000000000000000000000000000007F3F005F
:10539000000000000000000000000000000000000D
:1053A00000000000000000000000000000000000FD
:1053B0000000000000000000000000F8F8F0F070AD
:1053C00020000000000000000000000000000000BD
:1053D00000000000000000000000000000000000CD
:1053E000000000000000800000000000000000003D
:1053F0000000000000000000000000FFFFFFFF00B1
:10540000000000000000000000000000000000009C
:10541000000080800000000000000000000000008C
:1054200000000000000000FFFFFE0606060606065C
:105430000606060606060606060606FFFFFFFF0628
:1054400006060606060606060606060606060606FC
:1054500006FFFFFFFF070200000000000000000041
:1054600000000000000000FFFFFF0000000000003F
:105470000000000000000000000000FFFFFFFF0030
:10548000000000000000000000000000000000001C
:1054900000FFFFFFFF000000000000000000000010
:1054A00000000000000000FFFFFF1818181818186F
:1054B0001818181818181818181818FFFFFFFF18D0
:1054C000181818181818181818181818181818185C
:1054D00018FFFFFFFF0000000000000000000000B8
:1054E00000000000000002010100000000000000B8
:1054F0000000000000000000000000FFFFFFFF00B0
:10550000000000000000000000000000000000009B
:105510000001010000000000000000000000000089
:10552000000000000000000000000000000000007B
:105530000000000000000000000000FFFFFFFF006F
:10554000000000000000000000000000000000005B
:10555000000000000000000000000000000000004B
:10556000000000000000000000000000000000003B
:1055700000000000000000000000001F1F0F0F00CF
:10558000000000000000000000000000000000001B
:10559000000000000000000000000000000000000B
:1055A000E90E1A0E490D8F0CD60B310B8F0AF70935
:1055B0006A09E0086208E80778070D07A7064806A9
:1055C000ED0598054705FB04B30470043104F403AA
:1055D000BC03860353032303F602CB02A4027D021D
:1055E0005A0238021802FA01640019000200180079
:1055F000020016000200180004000D0002000F0057
:105600000200110004000D0004000C0004000C0056
:1056100002000C000400190002001800020016002D
:105620000200180004000F000200110004000D0029
:105630000200140004001600020014000400190007
:1056400002001800020016000200180004000D00FD
:1056500002000F000200110004000D0004000C0005
:1056600004000C0002000C0004001B0004001D00DC
:10567000040016000400190002001B0004001D00B5
:105680000400200004001D0004002200040020008B
:1056900004001B0002001D0004001D000400160091
:1056A0000400140002001600040016000400160096
:1056B000040016000200160002001600020014008A
:1056C0000200140002001400020011000400140083
:1056D000040011000400140004001100060014006E
:1056E0000200110006001400020011000600140060
:1056F0000200110006000F0002000D000A000D005C
:105700000400190004001800040014000400110033
:1057100004000F000400110004000F0004000D003D
:10572000040011000600110002000F00080016001E
:105730000400160002001600020016000200140009
:105740000200140002001400020011000400140002
:1057500004001100040014000400110006001400ED
:1057600002001100060014000200110006001400DF
:105770000200110006000F0002000D000A000D00DB
:1057800004001900040018000400140004001100B3
:1057900004000F000400110004000F0004000D00BD
:1057A000040011000600120002000F0008000F00A4
:1057B00006000D0002000D0006000D0002000F00A3
:1057C00006000D0002000D0006000D0002000F0093
:1057D00004000D0004000F000400140004000F007A
:1057E00006000D0002000D0004000D0006000D0073
:1057F00002000F0006000D0002000D0004000D0065
:1058000004000F0006000D0002000D0004000D0052
:1058100004000F0004000D0004000F000400140039
:10582000040016000400140002001400020014001A
:10583000020014000200160006001400020014000A
:1058400004001400040016000600140002001400F6
:1058500004001400040016000400140004001600E4
:1058600004001900040018000400140004001100D2
:105870000400140004000D000C00110004000F00CF
:1058800002000D0002000D0006000F0004001100D0
:1058900006000F0002000F000800120006001100B1
:1058A000020011000C00190004001800040014008C
:1058B0000400140002001600020016000400140088
:1058C000020016000200160004001800040019006F
:1058D00004001B0004001800040018000400190054
:1058E000040018000400140004001100040011005A
:1058F00004001600020014000200110002000D0056
:1059000002000F000200110004000D0002000F0051
:105910000200110002000D0004000F00020011003F
:1059200002000D0004000F0002001100020014002C
:105930000200110002000F000400110004000F001B
:1059400004000D00040011000800160004001400FB
:1059500004001400020016000200160004001400E7
:1059600002001600020016000400180004001900CE
:1059700004001B00040018000400140004001E00B2
:1059800006001D0002001D000400190004001B0099
:1059900004001D0004001E0002001D0002001D0086
:1059A00002001B000200190002001800020018008B
:1059B000040016000200180002001800040019007C
:1059C000020019000400190010000000080019006E
:1059D00004001B0004001D0004001E0002001D0046
:1059E00002001D0002001B00020019000200180046
:1059F0000800000002001400020018000400190052
:105A0000040000001000FF00285A000800000020D9
:105A10001800000028010008405A00081800002063
:105A20000810000044010008010000001000000000
:105A30000000000000127A000000000000A24A04EA
:04000005080000ED02
:00000001FF
